:1000000018C030C02FC0AAC02DC02CC02BC02AC021
:1000100029C028C0010200000000010204081020CD
:10002000020202020202000000003800000000008C
:10003000370011241FBECFE9CDBF10E0A0E6B0E02D
:10004000E0EEF3E002C005900D92A236B107D9F7B9
:1000500020E0A2E6B0E001C01D92AD36B207E1F7A4
:10006000B2D1BCC1CDCF1F93CF93DF93379A87B165
:1000700087B983E087B9CAE0369A6CE370E080E024
:1000800090E0DAD03699FECFC150B1F71AE0C0E067
:10009000D0E0369A6CE370E080E090E0CDD0369905
:1000A000FECF84B195B1C80FD91F115091F7CE0181
:1000B000DF91CF911F91089561E080E015D161E05B
:1000C00084E012D161E081E00FC1CDDF9093630045
:1000D000809362008E3E21E1920724F482E08093B7
:1000E00060000BC08E3528E1920724F081E08093F8
:1000F000600005C08732954114F461E001C060E002
:1001000081E02BD180916000823010F061E001C06D
:1001100060E080E022D18091620090916300855D73
:100120009D4F909363008093620086339A418CF4D4
:1001300061E084E012D16CE370E080E090E07CD07C
:1001400060E084E00AD168E770E080E090E074D07D
:10015000E2CF60EB74E080E090E06EC01F920F92FF
:100160000FB60F9211242F933F938F939F93AF93CA
:10017000BF938091650090916600A0916700B09157
:1001800068003091640020E3230F2D3720F440965F
:10019000A11DB11D05C023EB230F4196A11DB11D6B
:1001A000209364008093650090936600A09367009D
:1001B000B09368008091690090916A00A0916B00F3
:1001C000B0916C000196A11DB11D809369009093C0
:1001D0006A00A0936B00B0936C00BF91AF919F91A8
:1001E0008F913F912F910F900FBE0F901F901895F8
:1001F0003FB7F8948091690090916A00A0916B00DC
:10020000B0916C0022B708B601FE05C02F3F19F06F
:100210000196A11DB11D3FBF6627782F892F9A2F08
:10022000620F711D811D911D46E0660F771F881FAB
:10023000991F4A95D1F708958F929F92AF92BF92DE
:10024000CF92DF92EF92FF926B017C01D1DF4B01E5
:100250005C01C114D104E104F104E1F0BED0C8DFB7
:10026000681979098A099B09683E734081059105DF
:1002700080F321E0C21AD108E108F10888EE880E67
:1002800083E0981EA11CB11CC114D104E104F10447
:1002900031F7DFCFFF90EF90DF90CF90BF90AF901E
:1002A0009F908F90089578948FB582608FBD8FB5A1
:1002B00081608FBD83B7826083BF83B7816083BF56
:1002C00089B7826089BF3298319A309A379A0895F7
:1002D000813019F0823021F008958FB58F7702C0F8
:1002E0008FB58F7D8FBD0895CF93DF9390E0FC0194
:1002F000E65EFF4F2491FC01E05EFF4F849188236E
:1003000049F190E0880F991FFC01E45DFF4FA59132
:10031000B4918A5D9F4FFC01C591D4919FB7611143
:1003200008C0F8948C91209582238C938881822335
:100330000AC0623051F4F8948C91322F30958323A7
:100340008C938881822B888304C0F8948C91822BB3
:100350008C939FBFDF91CF9108950F931F93CF93FD
:10036000DF931F92CDB7DD27282F30E0F901EC5E37
:10037000FF4F8491F901E65EFF4F1491F901E05EB1
:10038000FF4F04910023C1F0882319F06983A0DF97
:100390006981E02FF0E0EE0FFF1FEA5DFF4FA591AE
:1003A000B4919FB7F8948C91611103C0109581238B
:1003B00001C0812B8C939FBF0F90DF91CF911F9134
:1003C0000F91089508956FDFFDDF76DEC0E0D0E085
:1003D0007CDE2097E9F314DEFBCF0895F894FFCF7D
:0203E00001001A
:00000001FF
