:1000000017C024C023C022C021C020C01FC01EC0F2
:100010003DC01CC075C0A0C0A1C0A7C09DC09EC0EF
:10002000A4C09AC09BC0A1C097C098C09EC098C0F1
:1000300011241FBECFE9CDBF20E0A0E6B0E001C093
:100040001D92A136B207E1F732D09BC0D9CF85E02F
:10005000369AE7E0F7E03197F1F700C000003699F3
:10006000FECF8150A9F74AE080E090E0369AE7E0C1
:10007000F7E03197F1F700C000003699FECF24B1C8
:1000800035B1820F931F415089F708951F920F9247
:100090000FB60F9211248F93809160008F5F809331
:1000A00060008F910F900FBE0F901F901895B89A17
:1000B000B99ABA9ABB9ABC9A81B5826081BD81B562
:1000C000806481BD81B581BD789485B7877E80616C
:1000D00085BF379810926000CFE1D9E01CE006E0C0
:1000E00083E0F82EEE24E39420916000822F90E0CC
:1000F000FC013197EE30F105C0F5E65FFF4F099442
:10010000BB9887B187B987B1836087B9379A369A28
:100110003699FECF9CDF3798BB9A863325E192074C
:1001200044F4C19A00936000883F21E192075CF09B
:1001300020C0C198D093600081369841D4F0C09817
:100140001093600016C0C09AF0926000803A9F4001
:1001500084F4E09260000DC0C49A0BC0C49809C03A
:10016000B39907C0C093600004C02F3310F0109201
:10017000600085B7806285BF889585B78F7D85BF14
:06018000B3CFF894FFCF9D
:00000001FF
